:020000040800F2
:1000000000001024B1200008C91B0008CD1B000807
:10001000D11B0008D51B0008D91B000800000000F8
:10002000000000000000000000000000DD1B0008D0
:10003000E11B000800000000E51B0008E91B0008A8
:100040000121000801210008012100080121000808
:1000500001210008012100080121000801210008F8
:1000600001210008012100080121000801210008E8
:1000700001210008012100080121000801210008D8
:1000800001210008012100080121000801210008C8
:1000900001210008012100080121000801210008B8
:1000A00001210008012100080121000801210008A8
:1000B0000121000801210008012100080121000898
:1000C0000121000801210008012100080121000888
:1000D0000121000801210008012100080121000878
:1000E0000121000801210008012100080121000868
:1000F0000121000801210008012100080121000858
:100100000121000801210008012100080121000847
:100110000121000801210008012100080121000837
:100120000121000801210008012100080121000827
:10013000012100080000000000000000012100086B
:100140000121000801210008012100080121000807
:1001500001210008012100080121000801210008F7
:1001600001210008012100080121000801210008E7
:1001700001210008ED1B000801210008000000001B
:1001800001210008012100080121000801210008C7
:1001900001210008012100080121000801210008B7
:1001A00001210008012100080121000801210008A7
:1001B0000121000801210008012100080121000897
:1001C00001210008012100080000000000000000DB
:1001D00000000000000000000121000800000000F5
:1001E000000000000000000000000000000000000F
:1001F00000000000000000000121000801210008AB
:100200000121000801210008000000000121000870
:100210000121000801210008012100080121000836
:100220000121000801210008012100080000000050
:100230000121000801210008000000000121000840
:100240000121000801210008012100080121000806
:1002500001210008012100080121000801210008F6
:1002600001210008012100080121000801210008E6
:100270000121000801210008012100080000000000
:1002800001210008012100080000000001210008F0
:10029000000000000121000801210008000000000A
:0C02A000000000000121000801210008FE
:1002C00080F0004002E000BF81F0004142001FBF0B
:1002D0005FEA410392EA030F7FEA226C7FEA236C14
:1002E0006AD04FEA1262D2EB1363C1BFD218414009
:1002F00048404140B8BF5B42192B88BF704710F09F
:10030000004F40F4000020F07F4018BF404211F041
:10031000004F41F4000121F07F4118BF494292EAA9
:10032000030F3FD0A2F1010241FA03FC10EB0C00D5
:10033000C3F1200301FA03F100F0004302D5494262
:1003400060EB4000B0F5000F13D3B0F1807F06D30F
:1003500040084FEA310102F10102FE2A51D2B1F107
:10036000004F40EBC25008BF20F0010040EA0300FC
:100370007047490040EB0000013A28BFB0F5000F7C
:10038000EDD2B0FA80FCACF1080CB2EB0C0200FA32
:100390000CF0AABF00EBC25052421843BCBFD04081
:1003A0001843704792F0000F81F4000106BF80F4FB
:1003B00000000132013BB5E74FEA41037FEA226CBE
:1003C00018BF7FEA236C21D092EA030F04D092F089
:1003D000000F08BF0846704790EA010F1CBF0020BD
:1003E000704712F07F4F04D1400028BF40F000401A
:1003F000704712F100723CBF00F50000704700F03A
:10040000004343F0FE4040F4000070477FEA226260
:1004100016BF08467FEA23630146420206BF5FEA31
:10042000412390EA010F40F4800070474FF0000331
:1004300004E000BF10F0004348BF40425FEA000CF8
:1004400008BF704743F0964301464FF000001CE0A0
:1004500050EA010208BF70474FF000030AE000BFF6
:1004600050EA010208BF704711F0004302D5404234
:1004700061EB41015FEA010C02BF844601460020A6
:1004800043F0B64308BFA3F18053A3F50003BCFAC1
:100490008CF2083AA3EBC25310DB01FA02FC63446E
:1004A00000FA02FCC2F12002BCF1004F20FA02F275
:1004B00043EB020008BF20F00100704702F1200268
:1004C00001FA02FCC2F1200250EA4C0021FA02F2C9
:1004D00043EB020008BF20EADC7070474FF0FF0CCE
:1004E0001CEAD0521EBF1CEAD15392EA0C0F93EAC9
:1004F0000C0F6FD01A4480EA010C400218BF5FEA6B
:1005000041211ED04FF0006343EA501043EA5111DD
:10051000A0FB01310CF00040B1F5000F3EBF4900D7
:1005200041EAD3715B0040EA010062F17F02FD2ADB
:100530001DD8B3F1004F40EBC25008BF20F00100BE
:10054000704790F0000F0CF0004C08BF49024CEAD5
:10055000502040EA51207F3AC2BFD2F1FF0340EA67
:10056000C250704740F400004FF00003013A5DDCD8
:1005700012F1190FDCBF00F000407047C2F1000219
:10058000410021FA02F1C2F1200200FA02FC5FEA06
:10059000310040F1000053EA4C0308BF20EADC7050
:1005A000704792F0000F00F0004C02BF400010F4C2
:1005B000000F013AF9D040EA0C0093F0000F01F06F
:1005C000004C02BF490011F4000F013BF9D041EA91
:1005D0000C018FE70CEAD15392EA0C0F18BF93EA93
:1005E0000C0F0AD030F0004C18BF31F0004CD8D1BD
:1005F00080EA010000F00040704790F0000F17BF44
:1006000090F0004F084691F0000F91F0004F14D089
:1006100092EA0C0F01D142020FD193EA0C0F03D1E1
:100620004B0218BF084608D180EA010000F00040E4
:1006300040F0FE4040F40000704740F0FE4040F4BF
:10064000400070474FF0FF0C1CEAD0521EBF1CEA5E
:10065000D15392EA0C0F93EA0C0F69D0A2EB03027C
:1006600080EA010C49024FEA402037D04FF0805316
:1006700043EA111143EA10130CF000408B4238BFDB
:100680005B0042F17D024FF4000C8B4224BF5B1AE9
:1006900040EA0C00B3EB510F24BFA3EB510340EA37
:1006A0005C00B3EB910F24BFA3EB910340EA9C00E5
:1006B000B3EBD10F24BFA3EBD10340EADC001B0155
:1006C00018BF5FEA1C1CE0D1FD2A3FF650AF8B42F9
:1006D00040EBC25008BF20F0010070470CF0004C06
:1006E0004CEA50207F32C2BFD2F1FF0340EAC25031
:1006F000704740F400004FF00003013A37E792F0F2
:10070000000F00F0004C02BF400010F4000F013A4F
:10071000F9D040EA0C0093F0000F01F0004C02BF4A
:10072000490011F4000F013BF9D041EA0C0195E7B3
:100730000CEAD15392EA0C0F08D142027FF47DAF4C
:1007400093EA0C0F7FF470AF084676E793EA0C0F3C
:1007500004D14B023FF44CAF08466EE730F0004C3A
:1007600018BF31F0004CCAD130F000427FF45CAFCA
:1007700031F000437FF43CAF5FE700BF42000ED290
:10078000B2F1FE4F0BD34FF09E03B3EB126209D4CC
:100790004FEA002343F0004323FA02F070474FF082
:1007A0000000704712F1610F01D1420202D14FF0F7
:1007B000FF3070474FF00000704700BF844641EAA9
:1007C000000313F003036DD1403A41D351F8043BC9
:1007D00040F8043B51F8043B40F8043B51F8043B1B
:1007E00040F8043B51F8043B40F8043B51F8043B0B
:1007F00040F8043B51F8043B40F8043B51F8043BFB
:1008000040F8043B51F8043B40F8043B51F8043BEA
:1008100040F8043B51F8043B40F8043B51F8043BDA
:1008200040F8043B51F8043B40F8043B51F8043BCA
:1008300040F8043B51F8043B40F8043B51F8043BBA
:1008400040F8043B51F8043B40F8043B403ABDD229
:10085000303211D351F8043B40F8043B51F8043BCB
:1008600040F8043B51F8043B40F8043B51F8043B8A
:1008700040F8043B103AEDD20C3205D351F8043B5A
:1008800040F8043B043AF9D2043208D0D2071CBF26
:1008900011F8013B00F8013B01D30B88038060464F
:1008A000704700BF082A13D38B078DD010F00303C5
:1008B0008AD0C3F10403D21ADB071CBF11F8013B35
:1008C00000F8013B80D331F8023B20F8023B7BE784
:1008D000043AD9D3013A11F8013B00F8013BF9D2AF
:1008E0000B7803704B7843708B7883706046704749
:1008F00000000000000000000000000000000000F8
:1009000030B490F800F020F007016FF0000C10F008
:10091000070491F820F040F048804FF000046FF099
:100920000700D1E9002391F840F000F1080082FAB5
:100930004CF2A4FA8CF283FA4CF3A2FA8CF34BBB80
:10094000D1E9022382FA4CF200F10800A4FA8CF2F9
:1009500083FA4CF3A2FA8CF3E3B9D1E9042382FAC7
:100960004CF200F10800A4FA8CF283FA4CF3A2FADC
:100970008CF37BB9D1E9062301F1200182FA4CF214
:1009800000F10800A4FA8CF283FA4CF3A2FA8CF37B
:10099000002BC6D0002A04BF04301A4612BAB2FA9D
:1009A00082F200EBD20030BC7047D1E9002304F0A2
:1009B0000305C4F100004FEAC50514F0040F91F8D7
:1009C00040F00CFA05F562EA05021CBF63EA050374
:1009D00062464FF00004AAE700000000000000009B
:1009E00001F0FF01102A2BDB10F0070F08D010F8E0
:1009F000013B013A8B422DD010F0070F42B3F6D1E4
:100A0000F0B441EA012141EA014122F007047FF0FC
:100A100000070023F0E80256083C85EA010586EA53
:100A2000010685FA47F5A3FA87F586FA47F6A5FA8F
:100A300087F68EB9EED1F0BC01F0FF0102F007029B
:100A400032B110F8013B013A83EA010313B1F8D146
:100A50000020704701387047002D06BF3546033827
:100A6000073815F0010F07D1013015F4807F02BF60
:100A7000013015F4C03F0130F0BC0138704700BFB1
:100A800081F0004102E000BF83F0004330B54FEA3F
:100A900041044FEA430594EA050F08BF90EA020FAC
:100AA0001FBF54EA000C55EA020C7FEA645C7FEA3F
:100AB000655C00F0E2804FEA5454D4EB5555B8BF62
:100AC0006D420CDD2C4480EA020281EA030382EAD3
:100AD000000083EA010180EA020281EA0303362D65
:100AE00088BF30BD11F0004F4FEA01314FF4801C38
:100AF0004CEA113102D0404261EB410113F0004F4A
:100B00004FEA03334CEA133302D0524263EB430300
:100B100094EA050F00F0A780A4F10104D5F1200E9E
:100B20000DDB02FA0EFC22FA05F2801841F10001F9
:100B300003FA0EF2801843FA05F359410EE0A5F1CD
:100B400020050EF1200E012A03FA0EFC28BF4CF0FE
:100B5000020C43FA05F3C01851EBE37101F00045B4
:100B600007D54FF0000EDCF1000C7EEB00006EEBC1
:100B70000101B1F5801F1BD3B1F5001F0CD349084B
:100B80005FEA30004FEA3C0C04F101044FEA4452A2
:100B900012F5800F80F09A80BCF1004F08BF5FEA29
:100BA000500C50F1000041EB045141EA050130BD09
:100BB0005FEA4C0C404141EB0101013C28BFB1F51B
:100BC000801FE9D291F0000F04BF01460020B1FA66
:100BD00081F308BF2033A3F10B03B3F120020CDA39
:100BE0000C3208DD02F1140CC2F10C0201FA0CF017
:100BF00021FA02F10CE002F11402D8BFC2F1200C7C
:100C000001FA02F120FA0CFCDCBF41EA0C01904031
:100C1000E41AA2BF01EB0451294330BD6FEA04047A
:100C20001F3C1CDA0C340EDC04F11404C4F1200265
:100C300020FA04F001FA02F340EA030021FA04F377
:100C400045EA030130BDC4F10C04C4F1200220FACE
:100C500002F001FA04F340EA0300294630BD21FA0C
:100C600004F0294630BD94F0000F83F4801306BFD2
:100C700081F480110134013D4EE77FEA645C18BFC6
:100C80007FEA655C29D094EA050F08BF90EA020F5D
:100C900005D054EA000C04BF1946104630BD91EA55
:100CA000030F1EBF0021002030BD5FEA545C05D158
:100CB0004000494128BF41F0004130BD14F5800497
:100CC0003CBF01F5801130BD01F0004545F0FE410B
:100CD00041F470014FF0000030BD7FEA645C1ABF40
:100CE000194610467FEA655C1CBF0B46024650EA77
:100CF000013406BF52EA033591EA030F41F40021A3
:100D000030BD00BF90F0000F04BF0021704730B528
:100D10004FF4806404F132044FF000054FF00001FD
:100D200050E700BF90F0000F04BF0021704730B5BE
:100D30004FF4806404F1320410F0004548BF404293
:100D40004FF000013EE700BF42004FEAE2014FEAE8
:100D500031014FEA02701FBF12F07F4393F07F4FC3
:100D600081F06051704732F07F4208BF704793F0C6
:100D70007F4F04BF41F40021704730B54FF46074D9
:100D800001F0004521F000411CE700BF50EA0102DC
:100D900008BF704730B54FF000050AE050EA010285
:100DA00008BF704730B511F0004502D5404261EBF5
:100DB00041014FF4806404F132045FEA915C3FF436
:100DC000D8AE4FF003025FEADC0C18BF03325FEAD3
:100DD000DC0C18BF033202EBDC02C2F1200300FA84
:100DE00003FC20FA02F001FA03FE40EA0E0021FAA9
:100DF00002F11444BDE600BF70B54FF0FF0C4CF497
:100E0000E06C1CEA11541DBF1CEA135594EA0C0F48
:100E100095EA0C0F00F0DEF82C4481EA030621EA83
:100E20004C5123EA4C5350EA013518BF52EA0335BE
:100E300041F4801143F4801338D0A0FB02CE4FF070
:100E40000005E1FB02E506F00042E0FB03E54FF0A0
:100E50000006E1FB03569CF0000F18BF4EF0010E98
:100E6000A4F1FF04B6F5007F64F5407404D25FEA94
:100E70004E0E6D4146EB060642EAC62141EA555147
:100E80004FEAC52040EA5E504FEACE2EB4F1FD0C89
:100E900088BFBCF5E06F1ED8BEF1004F08BF5FEA07
:100EA000500E50F1000041EB045170BD06F00046B9
:100EB00046EA010140EA020081EA0301B4EB5C0466
:100EC000C2BFD4EB0C0541EA045170BD41F480115E
:100ED0004FF0000E013C00F3AB8014F1360FDEBF83
:100EE000002001F0004170BDC4F10004203C35DA5F
:100EF0000C341BDC04F11404C4F1200500FA05F3E2
:100F000020FA04F001FA05F240EA020001F0004282
:100F100021F0004110EBD37021FA04F642EB0601F8
:100F20005EEA430E08BF20EAD37070BDC4F10C0422
:100F3000C4F1200500FA04F320FA05F001FA04F2E6
:100F400040EA020001F0004110EBD37041F10001D2
:100F50005EEA430E08BF20EAD37070BDC4F12005DD
:100F600000FA05F24EEA020E20FA04F301FA05F245
:100F700043EA020321FA04F001F0004121FA04F2ED
:100F800020EA020000EBD3705EEA430E08BF20EABD
:100F9000D37070BD94F0000F0FD101F000464000F7
:100FA00041EB010111F4801F08BF013CF7D041EA79
:100FB000060195F0000F18BF704703F0004652007D
:100FC00043EB030313F4801F08BF013DF7D043EA4E
:100FD0000603704794EA0C0F0CEA135518BF95EA04
:100FE0000C0F0CD050EA410618BF52EA4306D1D18B
:100FF00081EA030101F000414FF0000070BD50EAAA
:10100000410606BF1046194652EA430619D094EA33
:101010000C0F02D150EA013613D195EA0C0F05D11D
:1010200052EA03361CBF104619460AD181EA030171
:1010300001F0004141F0FE4141F470014FF0000029
:1010400070BD41F0FE4141F4780170BD70B54FF0C4
:10105000FF0C4CF4E06C1CEA11541DBF1CEA135544
:1010600094EA0C0F95EA0C0F00F0A7F8A4EB050426
:1010700081EA030E52EA03354FEA013100F088801D
:101080004FEA03334FF0805545EA131343EA1263E6
:101090004FEA022245EA111545EA10654FEA00269B
:1010A0000EF000419D4208BF964244F1FD0404F554
:1010B000407402D25B084FEA3202B61A65EB0305B0
:1010C0005B084FEA32024FF480104FF4002CB6EB6D
:1010D000020E75EB030E22BFB61A754640EA0C00ED
:1010E0005B084FEA3202B6EB020E75EB030E22BF2D
:1010F000B61A754640EA5C005B084FEA3202B6EB6E
:10110000020E75EB030E22BFB61A754640EA9C002C
:101110005B084FEA3202B6EB020E75EB030E22BFFC
:10112000B61A754640EADC0055EA060E18D04FEABA
:10113000051545EA16754FEA06164FEAC30343EA5A
:1011400052734FEAC2025FEA1C1CC0D111F4801F27
:101150000BD141EA00014FF000004FF0004CB6E720
:1011600011F4801F04BF01430020B4F1FD0C88BFBF
:10117000BCF5E06F3FF6AFAEB5EB030C04BFB6EBCA
:10118000020C5FEA500C50F1000041EB045170BDBD
:101190000EF0004E4EEA113114EB5C04C2BFD4EBEA
:1011A0000C0541EA045170BD41F480114FF0000E6E
:1011B000013C90E645EA060E8DE60CEA135594EAEA
:1011C0000C0F08BF95EA0C0F3FF43BAF94EA0C0FED
:1011D0000AD150EA01347FF434AF95EA0C0F7FF462
:1011E00025AF104619462CE795EA0C0F06D152EAB6
:1011F00003353FF4FDAE1046194622E750EA41069A
:1012000018BF52EA43067FF4C5AE50EA41047FF4AA
:101210000DAF52EA43057FF4EBAE12E74FF0FF3C0F
:1012200006E000BF4FF0010C02E000BF4FF0010CE0
:101230004DF804CD4FEA410C7FEA6C5C4FEA430C59
:1012400018BF7FEA6C5C1BD001B050EA410C0CBFA8
:1012500052EA430C91EA030F02BF90EA020F00200A
:10126000704710F1000F91EA030F58BF994208BF71
:1012700090422CBFD8176FEAE37040F0010070472E
:101280004FEA410C7FEA6C5C02D150EA013C07D185
:101290004FEA430C7FEA6C5CD6D152EA033CD3D0D0
:1012A0005DF8040B704700BF8446104662468C46CA
:1012B0001946634600E000BF01B5FFF7B7FF0028FD
:1012C00048BF10F1000F01BD4DF808EDFFF7F4FF26
:1012D0000CBF012000205DF808FB00BF4DF808EDB1
:1012E000FFF7EAFF34BF012000205DF808FB00BFD4
:1012F0004DF808EDFFF7E0FF94BF012000205DF8F6
:1013000008FB00BF4DF808EDFFF7CEFF94BF0120AA
:1013100000205DF808FB00BF4DF808EDFFF7C4FFA3
:1013200034BF012000205DF808FB00BF4FEA410CEC
:101330007FEA6C5C02D150EA013C0AD14FEA430CCF
:101340007FEA6C5C02D152EA033C02D14FF000000C
:1013500070474FF0010070474FEA410212F500124A
:1013600015D211D56FF47873B3EB625212D94FEAEC
:10137000C12343F0004343EA505311F0004F23FAD6
:1013800002F018BF404270474FF00000704750EA2B
:10139000013005D111F0004008BF6FF000407047E8
:1013A0004FF00000704700BF0348044B834202D057
:1013B000034B03B118477047B8070024B80700244F
:1013C000000000000548064B1B1AD90F01EBA301D2
:1013D000491002D0034B03B118477047B8070024E7
:1013E000B80700240000000010B5064C237843B96C
:1013F000FFF7DAFF044B13B10448AFF30080012379
:10140000237010BDB807002400000000B8E80008F1
:1014100008B5054B1BB105490548AFF30080BDE891
:101420000840FFF7CFBF00BF00000000BC0700244A
:10143000B8E800082DE9F04FDFF82091B5B099F831
:10144000003093B1012B0DD1454B1B78012BDAB243
:101450002BD0022A24D02AB935B0BDE8F04F00F0D5
:101460004FB962B635B0BDE8F08F72B63D4A5168EB
:101470000029F6D03C4C92E80300536084E8030056
:1014800062B63A48218800F0C9F972B60123218872
:10149000606889F8003035B0BDE8F04F00F0A0B8C2
:1014A00035B0BDE8F04F00F0C3B82F4C606818B1FC
:1014B00006F0FAFF0023636062B600F08BF8054681
:1014C0000C462B4800F0AAF92A4F2A4621462A4802
:1014D00000F0A4F9294800F0A1F93B883BB30025AE
:1014E000DFF89CB0DFF89C8005F1640A1FFA8AFAE5
:1014F000AA4522D905EB0B0600240AE0013516F8AF
:10150000013B07F087FB2044ADB284B2AA4507D95E
:101510003B8801A8AB424246C4F1C9012044EDD842
:1015200001A9194800F07AF93B88AB42DCD800F0F9
:10153000A3F9002389F8003094E701A9124800F0CC
:101540006DF93B88AB42F2D90F4C01A9204600F05F
:1015500065F93B88AB42F8D8E9E700BFDC07002417
:101560000000002400700024D407002440E9000893
:10157000D4E80008F0470024F0E800081CE900085F
:10158000F44700243CE9000834E9000810B50E4C8B
:10159000204604F02FF820460C4C0C2104F060FA91
:1015A000204604F027F80021204604F059FA0421CF
:1015B000204604F011F901224FF480410448BDE8AF
:1015C000104001F003B900BF1070002460700024C7
:1015D00000000258014BD3E900017047E8070024DE
:1015E00038B50E4B04460D464FF480421846002194
:1015F00007F0D4FB21462A46094CFFF7DFF800220A
:1016000008490220228008704FF48060064B4FF496
:101610000071064C22709861996138BDF007002472
:10162000F04700240000002400000258DD070024D9
:101630002A4B4FF480212A4A30B4996113699D05E1
:10164000FCD5284A13691C041AD5274A1369DB05FF
:10165000FCD522490424234B8C611B692348C3F326
:1016600002330178062B2AD0022911D021D8002973
:101670002CD0042B1DD11E4902239161037018E068
:1016800013691804FCD5164A13699905FCD5DCE7E3
:10169000154A136913F48073FBD1114A01241548CC
:1016A000002512691449D2B20280144AC1E90045EA
:1016B00013700D4B4FF0004230BC9A617047002907
:1016C000F7D00E4B01221A7030BC7047032BF0D1BB
:1016D0004FF08061012391610370EAE7000C02582A
:1016E000000802580004025800000258DD070024D8
:1016F0000580FA00DE070024E8070024000000242B
:101700003B4B4FF480213B4A996113699905FCD505
:10171000394A13691B043DD5384A1369DB05FCD5EA
:101720000421334A344B91611969C1F3023106290E
:1017300038D03348314A10B4D0E90034013344F191
:101740000004C0E900341369D805FCD4022937D05D
:1017500004292BD001291BD1264B2A491B69088853
:10176000DBB2294C1A029B0902F47C52237002431B
:101770000A80D9070CD4254B20499A5C0B69DB05FC
:10178000FCD5130483F47F03134343F400438B61BC
:1017900010BC704713691804FCD5164A13699905E3
:1017A000FCD5B9E71A4B01221A707047164B1B780B
:1017B000032B0CD0012B11D04FF000439361E7E7CE
:1017C0000C4B104A1B6910BCDBB2138070470949EF
:1017D0000C4B0E4A09691B88D154D9E70D4B0949B6
:1017E0001A880C880C48511C84541980D0E700BF1B
:1017F000000C025800080258000402580000025869
:10180000E8070024DE070024E0070024F007002496
:1018100000000024F0470024F44700240FB410B562
:10182000ADF5816D40F2FD310DF582630DF10B00D8
:1018300053F8042B019307F079FA0023C41C8DF8A8
:1018400009008DF80830A4B203128DF80A30214641
:1018500002A806F0A1FB0028F9D1064BD3F8BC2260
:10186000D2F81432002BFBD10DF5816DBDE810408C
:1018700004B07047B47000240C4B1B6800B51A0C00
:1018800083B0ADF804308DF80620032101A806F0DE
:1018900083FB0028F9D1064BD3F8BC22D2F81432CE
:1018A000002BFBD103B05DF804FB00BFD0E80008BB
:1018B000B47000242DE9F0474518A8420CD2DFF897
:1018C000A080044698F80030012B46D0022B40D06F
:1018D00023B10134A542F9D1BDE8F087214E14F8B7
:1018E000012B0123A542328088F80030F4D014F88F
:1018F000012B002330881C4F40EA02203B803080BF
:1019000006F0CAFD194B0222A542186088F8002093
:10191000E2D03A88D3F800A0531CB6F800902178A2
:101920009BB20AF802104B453B8001D00223D0E75E
:101930000F4F7B6813B1786806F0B6FD01340023C1
:10194000C7F804A0A542A7F8009088F80030C6D1D7
:10195000C2E7044E044F054BDBE7024EC7E700BF6A
:10196000FC6F0024F66F0024F46F0024F86F00244D
:1019700000700024F0B5444B8DB00024434D444F1B
:101980004CF2FF610A942846424ECDE90644CDE967
:101990000844D3F8402142F08002C3F84021D3F834
:1019A000402102F080020192019AD3F8402142F0D6
:1019B0000402C3F84021D3F8402102F0040202924D
:1019C000029AD3F8402142F00102C3F84021D3F833
:1019D000402102F001020392039AD3F8402142F021
:1019E0000202C3F84021D3F8402102F0020204921F
:1019F000049AD3F8402142F00802C3F8402122465D
:101A0000D3F8403103F008030593059B00F0DEFE98
:101A100022463846042100F0D9FE224630462021D5
:101A200000F0D4FEFF22002306A91B480894CDE94C
:101A3000062300F0A3FC28464CF2FF63012506A90B
:101A4000CDE90635CDE9084400F098FC4FF470422A
:101A5000002306A930460894CDE9062300F08EFC49
:101A60000423384606A906930994CDE9075400F0EB
:101A700085FC202306A93046CDE90635CDE908448A
:101A800000F07CFC0DB0F0BD00440258000002588C
:101A9000000C0258000402580008025830B59FB0EC
:101AA0004C2200210AA807F079F92022002102A87F
:101AB00007F074F9234B4FF0FF320220C3F8B02037
:101AC00001F0E0FE204A00230193936943F4404370
:101AD0009361936903F440430193019B93699B04D1
:101AE000FCD501244FF48035022346220AA819931D
:101AF000CDE90A450324CDE91532CDE913330C2293
:101B0000CDE917340023CDE91A231C9301F078FFA7
:101B1000034608B172B6FEE73F21402203944FF41A
:101B20008064029102A80621CDE90433CDE90622A2
:101B3000CDE9084202F0F8FA08B172B6FEE71FB02C
:101B400030BD00BF004402580048025800B50024D0
:101B500085B0CDE90044CDE9024400F0BFFB01218E
:101B600048F21F7240F201136846ADF8001003936B
:101B7000CDE9014200F0D0FB042000F0BDFB00F0F5
:101B8000E7FAFFF78BFFFFF7F5FE00F05DF900F0D5
:101B9000F7F906F097F9FFF7F9FCFFF74BFCFCE7C4
:101BA00072B6FEE7074B82B0D3F8542142F002022E
:101BB000C3F85421D3F8543103F002030193019B7D
:101BC00002B0704700440258FEE700BFFEE700BFC6
:101BD000FEE700BFFEE700BFFEE700BF704700BFA3
:101BE000704700BF704700BF00F0E2BA014800F044
:101BF000A3BE00BFB08700240120704708B507F0DE
:101C000085F9162203464FF0FF301A6008BD00BF69
:101C100008B507F07BF916230360FEE770B5161EC2
:101C200007DD0C468D19AFF3008004F8010BA542C7
:101C3000F9D1304670BD00BF70B5161E07DD0C46E9
:101C40008D1914F8010BAFF30080A542F9D130468D
:101C500070BD00BF4FF0FF30704700BF4FF400531E
:101C600000204B60704700BF012070470020704784
:101C70000D4903460D4A086810B50D4C121B20B1E2
:101C80000344934207D80B6010BD0A4C20460C60F9
:101C900003449342F7D907F039F90C2203464FF079
:101CA000FF301A6010BD00BF08700024000010242F
:101CB00000040000D08F00241E4A136803F00F03B5
:101CC000022B10B405D8136823F00F0343F003036D
:101CD0001360194B0024194A1968164841F0010194
:101CE00019601C6119680A401A60036813F00C0F30
:101CF00005D0036823F00F0343F0030303600E4B8A
:101D000000220F490F4C10489A61DA611A629C62F6
:101D100043F2D204D86219635A639963DA6319648F
:101D20005A641968094821F4802119601A66046010
:101D300010BC704700200052004402587FEDF6EAC4
:101D400080020101000202020000FF010040005277
:101D5000134A82B00368934213D0124A934201D0CF
:101D600002B07047104BD3F8502142F00202C3F882
:101D70005021D3F8503103F002030193019B02B0CC
:101D80007047094BD3F8502142F00102C3F85021AB
:101D9000D3F8503103F001030093009B02B0704769
:101DA0000000014000040140004402582149002382
:101DB0000268D0B58A4288B0CDE90233CDE9043358
:101DC000069304D01C4B9A4219D008B0D0BD1B4BCF
:101DD00001244FF480760227D3F8402102A9184845
:101DE0002243C3F84021D3F84031069423400093A6
:101DF000009BCDE9026700F0C1FA08B0D0BD0F4BDF
:101E00004FF4007602270324D3F8402102A90D489D
:101E100042F00402C3F84021D3F84031069403F0A5
:101E200004030193019BCDE9026700F0A7FA08B013
:101E3000D0BD00BF00000140000401400044025832
:101E4000000002580008025830B500249FB0342228
:101E5000214610A80494009408940794CDE9054401
:101E6000CDE90144CDE90944CDE90B44CDE90D4468
:101E700006F094FF4048414B8461036040F25D13DB
:101E8000C0E90144C0E90444C36003F011FB002829
:101E900056D14FF4805304A93748049303F080FED1
:101EA000002866D1344803F039FD00285ED132485D
:101EB00003F0F0FB002856D10023502269462E483B
:101EC000CDE900238023029304F008FA002847D1CB
:101ED0006021002000226123089100210B920E92C4
:101EE000CDE90C0108A92448CDE9093204F0DCF859
:101EF000002832D110249925042208A91E48CDE9D2
:101F0000084504F011F828BB00244FF400550023C5
:101F100010A9194816931A931C93CDE9144500246F
:101F20004FF00075CDE91033CDE91233CDE91845F6
:101F300004F02EFA38B91048FFF738FF1FB030BD53
:101F4000FFF72EFEA5E7FFF72BFE0B48FFF72EFF4E
:101F50001FB030BDFFF724FED6E7FFF721FEC9E72B
:101F6000FFF71EFEB4E7FFF71BFEA5E7FFF718FE1D
:101F70009DE7FFF715FE95E7607000240000014023
:101F800030B50024A5B03422214616A80494089444
:101F900000940E940794CDE90544CDE90944CDE9B8
:101FA0000B44CDE90144CDE90F44CDE91144CDE91D
:101FB000134406F0F3FE3C483C4B8461036040F25E
:101FC0005D13C0E90144C0E90444C36003F070FA42
:101FD000002850D14FF4805304A93348049303F0F0
:101FE000DFFD00285DD1304803F098FC002855D172
:101FF0000422002308A92C48CDE9082303F098FE09
:10200000002848D10023002269462748CDE9002353
:102010000023029304F062F9002839D1602461257D
:1020200000230EA90C22204810931493CDE90E45ED
:1020300000240025CDE9124504F036F828BB002421
:102040004FF40055002316A917481C9320932293A0
:10205000CDE91A4500244FF00075CDE91633CDE9DE
:102060001833CDE91E4504F093F938B90E48FFF74F
:102070009DFE25B030BDFFF793FDABE7FFF790FD68
:102080000948FFF793FE25B030BDFFF789FDD6E77D
:10209000FFF786FDC2E7FFF783FDB3E7FFF780FD9B
:1020A000A6E7FFF77DFD9EE71070002400040140C5
:1020B000DFF834D0FFF700FE0C480D490D4A00232D
:1020C00002E0D458C4500433C4188C42F9D30A4AED
:1020D0000A4C002301E013600432A242FBD306F055
:1020E0001BFFFFF733FD70470000102400000024A1
:1020F000B8070024D8ED0008B8070024D08F0024CA
:10210000FEE700000F4B1B780BB90120704710B59C
:1021100004464FF47A700C4AB0FBF3F31068B0FB3E
:10212000F3F000F0C5F80F2C00D808B1012010BD65
:10213000002221464FF0FF3000F070F8034B0020E2
:102140001C6010BD0C0000240800002410000024B6
:1021500010B50320124C00F04FF801F033FF114B83
:1021600011499A699B69C2F3032203F00F038A5C49
:10217000CB5C02F01F020D4903F01F03D04020FA90
:1021800003F308600F202360FFF7BCFF10B10124A8
:10219000204610BD0446FFF705FD204610BD00BFD8
:1021A000040000240044025870EB000808000024DA
:1021B000034A044B11681B780B441360704700BF3F
:1021C000AC7000240C000024014B1868704700BF5D
:1021D000AC70002438B50446FFF7F6FF0546631CD3
:1021E00002D0044B1B781C44FFF7EEFF401BA042BB
:1021F000FAD338BD0C00002406494FF6FF0C00024C
:10220000054BCA6800F4E06002EA0C021043034385
:10221000CB60704700ED00E00000FA051A4BDB6868
:10222000C3F3022300B5C3F1070E03F1040CBEF1A2
:10223000040F28BF4FF0040EBCF1060F1AD9A3F10A
:10224000030C4FF0FF3303FA0CF322EA03024FF0C2
:10225000FF33002803FA0EF321EA030303FA0CF319
:1022600043EA02034FEA0313DBB206DB074A1354C7
:102270005DF804FB00229446E9E700F00F00044AF1
:1022800013545DF804FB00BF00ED00E000E400E043
:1022900014ED00E0002807DB012300F01F01034AD2
:1022A00040098B4042F82030704700BF00E100E059
:1022B000431EB3F1807F01D3012070474FF0E0222D
:1022C000002005494FF0F00C5361072381F823C02B
:1022D00090611361704700BF00ED00E0BFF35F8FB6
:1022E000044B00215A6A22F480325A62C3F89410D7
:1022F000704700BF00ED00E0064B40F00100C3F85E
:1023000094005A6A42F480325A62BFF34F8FBFF38F
:102310006F8F704700ED00E0174A4378C2F898309D
:10232000017821B3436800B5C2F89C30C37A90F8B5
:102330000CC01B0690F80FE043EA0C7390F80AC03B
:102340000B43817B43EACC4390F80DC043EA8C43B6
:1023500090F809C043EA4143017A43EA0E4343EA55
:102360000C2343EA4103C2F8A0305DF804FBC2F835
:102370009C10C2F8A010704700ED00E00B68002B25
:1023800000F0EC81D84A90424FF000022DE9F04F66
:102390004FF0010B85B000F0F5804FF0B04E0BFA16
:1023A00002FC1CEA030A00F097804D6854000326E3
:1023B00005F00307A64007F1FF38F643B8F1010F17
:1023C00040F29280032F40F0E28107FA04F407689C
:1023D00015F4403F06EA070644EA060404607BD091
:1023E000C24E02F003074FF00F0CD6F85441BF0065
:1023F00044F002040CFA07FCC6F85441D6F85441E4
:1024000022F0030606F1B04604F0020406F58066E9
:102410000394039CB46824EA0C04DFF8D4C260453A
:1024200000F0AA80DFF8CCC2604529D0DFF8C8C22E
:10243000604500F08D81DFF8C4C2604500F08F81F7
:10244000DFF8BCC2604500F07D81DFF8B8C26045AE
:1024500000F08B81DFF8B0C2604500F08C81DFF8BE
:10246000ACC2604500F08D81DFF8A4C260450CBFAE
:102470004FF0090C4FF00A0C0CFA07F73C4304E04C
:102480004FF0020C0CFA07F73C43B460EF02DEF8A1
:1024900000406FEA0A064CBF4AEA04043440AF0227
:1024A000CEF80040DEF8044054BF34404AEA040449
:1024B000AF03CEF80440DEF8844054BF34404AEA0B
:1024C0000404ED03CEF88440DEF8804054BF34406D
:1024D0004AEA0404CEF88040013233FA02F47FF471
:1024E0005EAF05B0BDE8F08FD0F80890022FD1F8AC
:1024F0000C8009EA060908FA04F848EA0908C0F855
:102500000880C5F30018D0F8049008FA02F829EA08
:102510000C0C48EA0C0CC0F804C0D1F808C0D0F884
:102520000C800CFA04FC08EA06084CEA080CC0F817
:102530000CC07FF44AAF4FEAD20802F0070C00EB60
:1025400088084FEA8C0CD8F82090CDF80090D1F88C
:10255000109009FA0CF9CDF804904FF00F0909FA20
:102560000CFCDDF8009029EA0C09DDF804C04CEA07
:10257000090CC8F820C028E74FF0010C0CFA07F747
:102580003C4382E74FF0B04652E0032C40F00C8110
:10259000BC40076815F4403F07EA0A0744EA07040D
:1025A000046040D0514F4FF00F0E15F4801FD7F844
:1025B000544144F00204C7F85441D7F8544122F082
:1025C000030704F0020407F1B047039407F580679E
:1025D000039C02F003044FEA84040EFA04F4D7F8D3
:1025E00008E02EEA0404BC606FEA0C07346840F08F
:1025F000A6803C4015F4001F3460746840F08A8067
:102600003C4015F4003F7460D6F8844040F08B8065
:102610003C40ED03C6F88440D6F8804000F18C8041
:102620003C40C6F88040013233FA02F43FF459AF1F
:102630000BFA02FE13EA0E0CF5D04D6857004FF06E
:10264000030805F0030408FA07F86FEA080A04F122
:10265000FF38B8F1010F98D8D0F80890022CD1F8C3
:102660000C800AEA090908FA07F848EA0908C0F8DC
:102670000880C5F30018D0F8049008FA02F829EA97
:102680000E0E48EA0E0EC0F804E0D0F80C80D1F827
:1026900008E00AEA08080EFA07FE4EEA080EC0F83B
:1026A0000CE07FF475AF4FEAD20802F0070E00EBA2
:1026B00088084FEA8E0ED8F82090CDF80090D1F817
:1026C000109009FA0EF9CDF804904FF00F0909FAAD
:1026D0000EFEDDF8009029EA0E09DDF804E04EEA6E
:1026E000090EC8F820E053E70000025800440258E1
:1026F0000004025800080258000C0258001002584A
:102700000014025800180258001C025800200258F9
:102710000024025844EA0C0415F4003F7460D6F813
:1027200084403FF475AF4CEA0404ED03C6F88440DE
:10273000D6F880407FF574AF44EA0C0471E744EAB0
:102740000C0457E74FF0050C0CFA07F73C439CE6E6
:102750004FF0030C0CFA07F73C4396E670474FF036
:10276000040C0CFA07F73C438FE64FF0060C0CFA0A
:1027700007F73C4389E64FF0070C0CFA07F73C4398
:1027800083E64FF0080C0CFA07F73C437DE6D0F8DF
:102790000C80D1F808C008EA06080CFA04FC4CEAE0
:1027A000080CC0F80CC010E6DFF81C80D1F808E077
:1027B000D8F80C900EFA07FE0AEA09094EEA090E4B
:1027C000C8F80CE0E4E600BF0000025802B90904B2
:1027D00081617047F0B58BB060B390F8BD340546A9
:1027E000046803F0FF02002B79D0204603232E4615
:1027F0002F1D85F8BD34E36B6C4613F4807308BF5E
:10280000EB6003F037FF56F810EBB446BCE80F005E
:102810000FC4BCE80F000FC49CE8030084E8030069
:10282000704697E80E0003F001FE044630B1022323
:1028300085F8BD34012420460BB0F0BD0146286860
:1028400003F020FF686858B322464FF0010E21467E
:1028500002EBC20302F1010C05EB830383F83C2079
:10286000A3F856205FFA8CF283F83DE0824283F8A9
:102870004010D964C3E91111EAD3002204EBC40368
:10288000611C05EB830383F87C42CCB283F87D2284
:10289000844283F88022C3F88C22C3E9A122EDD3BD
:1028A0006C460FCE0FC40FCE0FC496E8030084E829
:1028B000030097E80E00286803F01AFF044600287A
:1028C000B5D101226B6A85F83800934285F8BD24A2
:1028D0000BD0286804F02CFB20460BB0F0BD80F82C
:1028E000BC2405F05DFC286880E7284600F0B0FFB6
:1028F000EFE700BF10B590F8BC3404460068012B28
:1029000017D0012384F8BC34C36BDB0502D4A36A5F
:10291000012B09D003F0A6FE206804F0F9FA002389
:10292000184684F8BC3410BD836B43F48033836352
:10293000F0E7022010BD00BF2DE9F04F066889B016
:102940000446304604F032FB10B109B0BDE8F08F08
:102950000546206804F0FCFA0028F6D0D6F80838BE
:1029600006F500622068C3F30D230392C4F8FC341B
:1029700004F0EEFA10F0020F206803D0436903F070
:102980000203436104F0E4FA10F0100F206814D041
:10299000836923F010038361376A07F4F01307F0AB
:1029A0000F08B3F5802F00F0DC83B3F5402F00F063
:1029B0007883836943F01003836104F0C9FA10F44B
:1029C000002F206840F0D18204F0C2FA470300F1E2
:1029D0002882206804F0BCFA0028C0F29A8120689E
:1029E00004F0B6FA020500F15781206804F0B0FA4D
:1029F000070114D52268536903F00063536194F80A
:102A0000F434002B40F001830121204684F8F414B3
:102A1000536DC3F38303C4F8F83400F031FF20682A
:102A200004F096FAC00400F19E81206804F090FA48
:102A300010F4005F206840F07F8104F089FA0107FC
:102A400000F1E681206804F083FA020671D5B269CC
:102A5000636822F08002012BB2616AD994F8A32244
:102A6000012A00F0EC83022B63D994F8C722012AD3
:102A700000F00084032B5CD994F8EB22012A00F0CB
:102A80000983042B55D994F80F23012A00F01C83E5
:102A9000052B4ED994F83323012A00F02B84062B02
:102AA00047D994F85723012A00F03884072B40D9DE
:102AB00094F87B23012A00F04A84082B39D994F832
:102AC0009F23012A00F05784092B32D994F8C3239D
:102AD000012A00F064840A2B2BD994F8E723012AF9
:102AE00000F071840B2B24D994F80B24012A00F0F8
:102AF0007E840C2B1DD994F82F24012A00F08484A5
:102B00000D2B16D994F85324012A00F0A0840E2B23
:102B10000FD994F87724012A00F0A7840F2B08D945
:102B200094F89B34012B04D104F59361206804F0E0
:102B3000F9F8206804F00CFAC30240F1AB80636836
:102B4000012B40F2898094F86420D6F82019012ADC
:102B500000F06982022B7FD994F88820D6F84019BA
:102B6000012A00F07382032B76D994F8AC20D6F8B2
:102B70006019012A00F07682042B6DD994F8D020D8
:102B8000D6F88019012A00F07982052B64D994F8CF
:102B9000F420D6F8A019012A00F04583062B5BD952
:102BA00094F81821D6F8C019012A00F05783072B92
:102BB00052D994F83C21D6F8E019012A00F062833A
:102BC000082B49D994F86021D6F8001A012A00F0A0
:102BD0006983092B40D994F88421D6F8201A012A58
:102BE00000F074830A2B37D994F8A821D6F8401A3C
:102BF000012A00F087830B2B2ED994F8CC21D6F82C
:102C0000601A012A00F097830C2B25D994F8F02143
:102C1000D6F8801A012A00F0A2830D2B1CD994F853
:102C20001422D6F8A01A012A00F0AD830E2B13D976
:102C300094F83822D6F8C01A012A00F0B8830F2B76
:102C40000AD994F85C22D6F8E01A012A00F0C3836E
:102C5000102B01D9D6F8003B2068436903F4801398
:102C6000436104F075F9870221D4206804F070F9FB
:102C7000400000F1C480206804F06AF941077FF544
:102C800064AE23685D686A0700F18C825A682A4343
:102C90005A605AE62068E4E7039B9B68DB0700F173
:102CA0007D822068436903F4006343619EE6D4F8A3
:102CB00004C0BCF1010F26D906F53262234601217A
:102CC00004E001312032243361451CD093F8A40282
:102CD00015680128F5D1002DF3DAD4F8FC7405F459
:102CE000803507F00107BD42EBD183F8A302B0693C
:102CF00040F08000B06170690506E2D4039A536821
:102D000043F4007353602068436903F40013436184
:102D1000ACE7039A536823F00103536094F8F4344A
:102D2000012B00F08C81204605F0EAFA2068436907
:102D300003F00043436153E604F03CF9206803F0DC
:102D400025FE2568206101F019FB227C01462846FA
:102D500003F00EFC204605F0A5FA2068436903F451
:102D60000053436169E6039A10212068536823F0F9
:102D70000103536003F0E0FD6068D8B106F510630D
:102D80004FF67F31996001351A682033A84222F44A
:102D9000001243F8202CC3F8E811D3F8E02122F404
:102DA0000012C3F8E021D3F8E02142F00062C3F83A
:102DB000E021E7D10399226BCB6943F00113CB618A
:102DC000002A00F02681D1F8843043F00B03C1F8CB
:102DD00084304B6C43F00B034B64D6F8003804F29C
:102DE000C442217B23F4FE632068C6F8003804F057
:102DF000F1F82068436903F48053436116E62046E6
:102E000005F08AFA2068436903F08043436133E7A1
:102E1000204605F043FA2068436903F00803436144
:102E200011E6206804F0A0F881462068B9F1000F8F
:102E30003FF4D0AD06F51067A0464FF0000ABB4640
:102E4000CDE90465054609E05FEA59090AF1010A7E
:102E500008F124080BF1200B00F03F8119F0010F5D
:102E6000F2D05FFA8AF72846394604F08FF8C10796
:102E7000064613D50120039B0AF00F015A6B00FA96
:102E800001F122EA0102E16881425A63CBF80800AD
:102E900000F08D813946204605F0F6F9320702D55B
:102EA0000823CBF80830F30602D51023CBF80830FE
:102EB000750602D54023CBF80830B00700F14481F5
:102EC00031062568C0D5D8E913239342BCD8A2EBBC
:102ED000030ED8F8441005F5106C07958E450CEBE1
:102EE0004A1628BF8E46B0690EF103011FFA80FE14
:102EF000BEEB910FC0F09381CDF818A024E0A2EBB7
:102F0000030AD8F84430D8F848103A469A4528467B
:102F100028BF9A46237B00931FFA8AF303F04AFFE7
:102F2000D8F84830B269534492B2C8F84830D8F85B
:102F3000503053440AF1030AB2EB9A0FC8F85030EC
:102F4000C0F06881D8F84C209A42D8D8DDF818A093
:102F50002568079B012203F500610AF00F039A40E0
:102F60004B6B23EA02034B636EE703F0F5FF074662
:102F7000002800F0B080049506F53068A3464FF0B5
:102F8000000A2068254608E07F080AF1010A08F1D6
:102F900020080BF1240B00F0A480FC07F4D55FFAA5
:102FA0008AF4214603F0E8FF10F0010F814640F05B
:102FB0009B8019F0080F40F0B68019F0100F02D076
:102FC0001022C8F8082019F0020F0FD072691006FD
:102FD00004D5039B5A6842F480625A609BF87F22B2
:102FE000012A00F033810223C8F8083019F0200FBD
:102FF00002D02023C8F8083019F4005F03D04FF442
:103000000053C8F808302868BEE7204605F060F98C
:1030100005E54A6942F22B0313434B610B6943F008
:103020000B030B61D9E60029BFF694AD04F16001F2
:10303000206884F8632003F075FE63688AE5002148
:10304000204684F8F41400F01BFC6FE60029BFF65C
:103050008AAD04F18401206884F8872003F062FEC1
:10306000636880E50029BFF687AD04F1A8012068F8
:1030700084F8AB2003F056FE63687DE50029BFF6B7
:1030800084AD04F1CC01206884F8CF2003F04AFE1F
:1030900063687AE504F53A71206803F043FE6368DB
:1030A000EFE408EBC808082204F2C441304603F0FC
:1030B00095FEC7F30A1304EB88022068D2F8901239
:1030C0000B44C2F8903274E404F54371206803F0B5
:1030D00029FE6368DCE4206876E42846049E059DAA
:1030E00078E42C46049D6FE428680122E968C8F85A
:1030F000082000F530620129D0F840E002EB4A12C6
:10310000936879D0BE498E4500F0D880BAF1000F9F
:1031100004D1D5F88C22002A00F0A181214628464E
:1031200005F0A8F845E729680822C8F8082001F545
:103130003062086CB34902EB4A128842936849D85E
:10314000284605F091F838E75146049803F0F4FB5F
:1031500098F83F20012A00F0C5800222CBF8082011
:10316000AEE647F6F0731F423FF423AC08EBC80805
:10317000C7F30A12304604EB88081746D8F88812BD
:1031800003F02CFED8F8883220683B44C8F8883217
:10319000D8F890323B44C8F890320AE4204605F053
:1031A00097F87EE5204605F0BBF823686EE5D8E980
:1031B00011020244C8F84820BAF1000F7FF46AAE49
:1031C000E26C002A7FF466AE04F2C442206803F089
:1031D00001FF5FE61B0461D54FF400412846916072
:1031E00005F042F8E96801297FF4E7AE05F2C44230
:1031F000286803F0EFFEE0E6190740F19780814967
:103200008E457FF6D6AE18047FF5D3AE4FF400415D
:103210009160CEE6DDF818A0D8F84C2025689A42D7
:103220003FF612AE95E60029BFF6B8AC04F1F00106
:10323000206884F8F32003F075FD6368AEE404F5BC
:103240002871206803F06EFD63680CE400222146BB
:1032500028468BF87F2205F057F8C4E60029BFF610
:10326000A6AC04F58A71206884F8172103F05AFD92
:1032700063689CE404F53171206803F053FD6368D2
:10328000FFF7F8BB0029BFF69BAC04F59C712068E2
:1032900084F83B2103F046FD636891E4284604F07E
:1032A000E3FF9FE70029BFF694AC04F5AE712068F8
:1032B00084F85F2103F036FD63688AE41804A5D41E
:1032C00099067FF52BAF2021916027E70029BFF6F3
:1032D00089AC04F5C071206884F8832103F022FDD5
:1032E00063687FE400223946204688F83F2005F0D5
:1032F0000FF832E704F54C71206803F013FD6368A2
:10330000FFF7CDBB0029BFF676AC04F5D27120687B
:1033100084F8A72103F006FD63686CE404F5557199
:10332000206803F0FFFC6368FFF7C0BB990673D504
:10333000202191603DE60029BFF666AC04F5E471FA
:10334000206884F8CB2103F0EDFC63685CE404F5AD
:103350005E71206803F0E6FC6368FFF7AEBB0029EE
:10336000BFF65BAC04F5F671206884F8EF2103F03A
:10337000D9FC636851E404F56771206803F0D2FC5E
:103380006368FFF7A1BB0029BFF650AC04F50471D8
:10339000206884F8132203F0C5FC636846E404F552
:1033A0007071206803F0BEFC6368FFF794BB0029CE
:1033B000BFF645AC04F50D71206884F8372203F0A0
:1033C000B1FC63683BE404F57971206803F0AAFC62
:1033D0006368FFF787BB0029BFF63AAC04F51671A6
:1033E000206884F85B2203F09DFC636830E404F5F8
:1033F0008161206803F096FC6368FFF77ABB00BF29
:103400000A31544F0A30544F04F22C41206803F023
:1034100089FC6368FFF774BB1B498E4502D91B0406
:103420003FF5F4AE1169DBF89C22C1F31201521A88
:10343000CBF89022BAF1000F7FF470AED5F88C1261
:10344000D9B1D5F888121144C5F8881266E604F59A
:103450008A61206803F066FC6368FFF758BB05F2D9
:10346000C442514603F0B6FD58E604F274412068A8
:1034700003F058FC6368FFF751BB05F2C442012119
:1034800003F0A8FD4AE600BF0A30544F90F8BC2470
:10349000012A0ED0012210B50446006884F83810C5
:1034A00084F8BC2403F022FD0023184684F8BC34C1
:1034B00010BD0220704700BF10B501F00F0E0906C5
:1034C00004460EEBCE0C4FEA8C0C25D40CF51F7184
:1034D0004FF0000C01440EEBCE0004EB800080F8AE
:1034E0007DC28A604A7881F800E00B710AB1A1F8C8
:1034F0001AE0022B01D100234B7194F8BC34012B4C
:1035000016D00123206884F8BC3403F04BFA002362
:10351000184684F8BC3410BD0CF13C014FF0010C8E
:1035200001440EEBCE0004EB800080F83DC0D8E7EC
:10353000022010BD01F00F0309061A4603EBC30376
:1035400010B54FEA8303044619D403F51F7102EB4B
:10355000C203002004EB8303214483F87D020A7038
:1035600094F8BC34012B1AD00123206884F8BC34B1
:1035700003F05EFA0023184684F8BC3410BD03F152
:103580003C0102EBC2004FF0010C04EB800321442C
:1035900083F83DC00A7094F8BC34012BE4D10220BA
:1035A00010BD00BF08B501F00F0E24210EEBCE0CAC
:1035B00001FB0E0100EB8C0C01F51F71CCF88C3275
:1035C0000023CCF888228CF87CE2CCF890328CF87E
:1035D0007D32C3680068012B08BFCCF89822DAB2AC
:1035E00003F084FA002008BD01F00F0101EBC101D6
:1035F00000EB8100D0F89002704700BF08B501F0E1
:103600000F0E24210EEBCE0C01FB0E0100EB8C0CF7
:103610003C31CCF84C300023CCF84820CCF850306A
:1036200001238CF83CE08CF83D30C3680068012B26
:1036300008BFCCF85820DAB203F058FA002008BDD1
:1036400038B5436801F00F059D4234D80B06044697
:103650001DD4242201EBC10302FB010100EB830313
:10366000002201F51F7183F87D2201230D708B70FC
:1036700094F8BC249A421CD0206884F8BC3403F02F
:10368000D1FBD5B10023184684F8BC3438BD2421C1
:1036900005EBC503012201FB050100EB83033C316F
:1036A00083F83D2001230D708B7094F8BC249A425E
:1036B000E2D1022038BD012038BD04F2C442217B92
:1036C000206803F087FCDDE701F00F0238B543689E
:1036D0009A4233D802EBC203090604464FEA830339
:1036E0001AD402EBC20003F51F73002504EB80001F
:1036F000E11880F87D5200250A708D7094F8BC3472
:10370000012B19D00123206884F8BC3403F0C2FBDC
:10371000284684F8BC5438BD02EBC2003C33012576
:1037200004EB8000E11880F83D5000250A708D7090
:1037300094F8BC34012BE5D1022038BD012038BDFE
:1037400000681204436A19B913438362002070476A
:1037500030B40139846A03EB14436BD0D0F80441D0
:10376000012903EB144365D0D0F80841022903EB8B
:1037700014435FD0D0F80C41032903EB144359D014
:10378000D0F81041042903EB144353D0D0F814416E
:10379000052903EB14434DD0D0F81841062903EB5B
:1037A000144347D0D0F81C41072903EB144341D000
:1037B000D0F82041082903EB14433BD0D0F8244132
:1037C000092903EB144335D0D0F828410A2903EB2B
:1037D00014432FD0D0F82C410B2903EB144329D0EC
:1037E000D0F830410C2903EB144323D0D0F83441F6
:1037F0000D2903EB14431DD0D0F838410E2903EBFB
:10380000144317D0D0F83C410F2903EB144311D0D7
:10381000D0F84041102903EB14430BD0102404F1DD
:10382000400C013400EB8C0C8C42DCF8045003EBB0
:103830001543F4D340311A4300EB8103002030BC20
:103840005A607047034600201B685962704700BFEA
:1038500003464FF0000C09491A68604610B4012471
:1038600083F8F4C4C3F80045936910BC43F00063C7
:103870009361536D19435165704700BF03000010F9
:10388000704700BF38B5104CE36813F0040FE368CD
:1038900005D103F00703181A18BF012038BD23F023
:1038A00007030343E360FEF78FFC054605E0FEF7E0
:1038B0008BFC401BB0F57A7F04D863689B04F6D577
:1038C000002038BD012038BD00480258024AD368A4
:1038D00043F08073D3607047004802582DE9F041EF
:1038E000424CA56AA36AE76A13F47C7F666BC3F354
:1038F000051039D0C6F3CC0607F00107FCF796FD9A
:10390000804607FB06F0FCF791FD4FF06451FCF791
:10391000E5FD05F003030546012B02D0022B45D03F
:1039200023B3206BC0F30800FCF780FD4FF07E51FD
:10393000FCF7CCFC2946FCF7C9FC414604462C4860
:10394000FCF780FE01462046FCF7C8FD0446274BE5
:103950001B6BC3F34623581CFCF768FD0146204649
:10396000FCF770FEFCF70AFFBDE8F08123689B06B8
:103970002CD523681F48C3F3C103266BD840FCF73E
:1039800055FD4146FCF75EFE0446C6F30800FCF711
:103990004DFD4FF07E51FCF799FC2946FCF796FC53
:1039A00001462046FCF79AFD0446D0E7206BC0F3A1
:1039B0000800FCF73BFD4FF07E51FCF787FC2946E1
:1039C000FCF784FC414604460B48B9E7206BC0F382
:1039D0000800FCF72BFD4FF07E51FCF777FC2946E1
:1039E000FCF774FC414604460448A9E70044025829
:1039F0000024744A0090D0030024744B0024744CBB
:103A0000002800F0DA82F8B503680446D9073BD5F0
:103A10009E490A69896A02F03802102A00F0E4809F
:103A2000182A00F0DC806368B3F5803F18D0002BC3
:103A300000F05481B3F5A02F00F07082B3F5A81FF9
:103A4000924B1A6800F0118222F480321A601A68D0
:103A500022F480221A601A6822F480121A6004E0AC
:103A60008A4A136843F480331360FEF7ADFB874E38
:103A7000054605E0FEF7A8FB401B642800F22C81F8
:103A800033689B03F6D523689D0764D4D90628D5EF
:103A90007E490A69896A02F03802082A00F0B48077
:103AA000182A00F0AC80E369784D002B00F05281B9
:103AB0002B6843F080032B60FEF786FB064605E08B
:103AC000FEF782FB801B022800F206812B68DB05D3
:103AD000F6D5EB68226A23F07C5343EA0263EB607D
:103AE00023681D0716D56369684D002B00F010810F
:103AF0006B6F43F001036B67FEF766FB064605E05C
:103B0000FEF762FB801B022800F2E6806B6F9807CD
:103B1000F6D523689A0616D5A3695C4D002B00F0F4
:103B200008812B6843F480532B60FEF74DFB06465B
:103B300005E0FEF749FB801B022800F2CD802B68D0
:103B40009F04F6D5236859076ED4636A002B40F0B2
:103B5000AA800020F8BD4D4A1369926A13F0380319
:103B600022D14A4BE2681B68590701D5002A44D08C
:103B7000464D2B6823F0190313432B60FEF724FBFB
:103B8000064605E0FEF720FB801B022800F2A48019
:103B90002B685B07F6D56B68226923F0FE4343EA86
:103BA00002636B60236871E7182B00F0F680374DD5
:103BB000E2682B68002A00F0DF8023F0190313432A
:103BC0002B60FEF701FB064605E0FEF7FDFA801BC1
:103BD000022800F281802B685F07F6D5DBE701F051
:103BE000030102297FF41FAF284A126892037FF570
:103BF0004BAF6268002A7FF447AF0120F8BD01F0A7
:103C0000030101297FF44FAF204A1268D20502D583
:103C1000E269802AF1D11D49206ACA6822F07C52EB
:103C200042EA0062CA605CE7194D2B6843F4807376
:103C30002B60FEF7C9FA064604E0FEF7C5FA801BC2
:103C4000642849D82B68DA05F7D5A368012B00F062
:103C50009481002B00F07481052B00F09481852B5A
:103C60000A4B1A6F00F09D8122F001021A671A6F49
:103C700022F004021A671A6F22F080021A67FEF718
:103C8000A3FA024E41F28837054608E00044025884
:103C900000480258FEF798FA401BB8421CD8336F10
:103CA0009B07F7D551E7A44D2A6902F03802182A7C
:103CB00000F0E780022B2B6823F080732B6070D01C
:103CC000FEF782FA04462B689B017FF542AFFEF7B0
:103CD0007BFA001B0228F6D90320F8BD964D2B680D
:103CE00023F480332B602B6823F480132B602B6824
:103CF00023F480232B60FEF767FA064604E0FEF704
:103D000063FA801B6428E7D82B689F03F7D4BAE6D0
:103D10006B6F23F001036B67FEF756FA064604E06B
:103D2000FEF752FA801B0228D6D86B6F9907F7D49A
:103D3000EFE62B6823F480532B60FEF745FA064626
:103D400004E0FEF741FA801B0228C5D82B689804CE
:103D5000F7D4F7E62B6823F080032B60FEF734FAE4
:103D6000064604E0FEF730FA801B0228B4D82B6820
:103D7000DF05F7D42368B4E623F001032B60FEF7D8
:103D800023FA064604E0FEF71FFA801B0228A3D898
:103D90002B685807F7D4236878E690077FF407AFBD
:103DA000DFE6FEF711FA064604E0FEF70DFA801B87
:103DB000022891D82B689901F7D4A96A5F4BA26AAF
:103DC0000B401343E26A43EA0213AB62216BD4E96E
:103DD0000D320139013B013AC1F308015B021204C3
:103DE0009BB202F4FE021343E26B013A0B4312064C
:103DF00002F0FE4213432B63EB6A23F00103EB62F4
:103E00006B6BA26C6FF3CF0343EAC2036B63EB6A85
:103E1000226C23F00C031343EB62EB6A626C23F019
:103E200002031343EB62EB6A43F48033EB62EB6A09
:103E300043F40033EB62EB6A43F48023EB62EB6AFA
:103E400043F00103EB622B6843F080732B60FEF7B5
:103E5000BBF9394D04462B689A013FF57AAEFEF75F
:103E6000B3F9001B0228F6D936E742F480221A6023
:103E70001A6842F480121A601A6842F480321A609A
:103E8000F3E5012BAA6A286B3FF4B7AE02F00303F7
:103E9000A16A8B427FF4B1AEC2F30512E36A9A4283
:103EA0007FF4ABAE236BC0F30802013B9A427FF470
:103EB000A4AE636BC0F34622013B9A427FF49DAEF1
:103EC000A36BC0F30642013B9A427FF496AEE36BCC
:103ED000C0F30660013B98427FF48FAE6B6BA26C1F
:103EE000C3F3CC039A423FF434AE134AD36A23F0AF
:103EF0000103D362FEF768F90546FEF765F9A842AB
:103F0000FBD00D4AA16C536B6FF3CF0343EAC1039F
:103F10005363D36A43F00103D3621AE6064B1A686F
:103F200042F480221A601A6822F480121A601A6819
:103F300042F480321A6098E5004402580CFCFFFFFE
:103F40001F4D41F288372B6F23F001032B672B6F36
:103F500023F080032B672B6F23F004032B67FEF7FE
:103F600033F9064605E0FEF72FF9801BB8423FF60D
:103F7000B3AE2B6F9807F6D4E7E5114A136F43F001
:103F8000010313677BE60E4B1A6F42F004021A67B7
:103F90001A6F22F080021A671A6F42F001021A6744
:103FA0006DE642F004021A671A6F42F080021A6747
:103FB0001A6F42F001021A6761E60120704700BFE4
:103FC000004402582DE9F041504C236903F03803B6
:103FD000102B52D0182B0BD0002B51D123689A06EE
:103FE00051D523684A48C3F3C103D840BDE8F081E6
:103FF000A56AA36AE76A13F47C7F666BC3F30510B6
:10400000F4D0C6F3CC0607F00107FCF70FFA8046A0
:1040100007FB06F0FCF70AFA4FF06451FCF75EFA72
:1040200005F003030546012B02D0022B4DD063B3EC
:10403000206BC0F30800FCF7F9F94FF07E51FCF754
:1040400045F92946FCF742F9414604463148FCF758
:10405000F9FA01462046FCF741FA04462B4B1B6B4C
:10406000C3F34623581CFCF7E1F901462046FCF750
:10407000E9FAFCF783FBBDE8F0812748BDE8F08151
:104080002648BDE8F0812248B0E723689B062CD57E
:1040900023681F48C3F3C103266BD840FCF7C6F959
:1040A0004146FCF7CFFA0446C6F30800FCF7BEF918
:1040B0004FF07E51FCF70AF92946FCF707F9014653
:1040C0002046FCF70BFA0446C8E7206BC0F3080053
:1040D000FCF7ACF94FF07E51FCF7F8F82946FCF7F5
:1040E000F5F8414604460E48B1E7206BC0F30800DE
:1040F000FCF79CF94FF07E51FCF7E8F82946FCF7F5
:10410000E5F8414604460748A1E700BF00440258CD
:104110000090D0030024744A0024F40000093D00FC
:104120000024744B0024744C002800F00E818D4A4A
:10413000136803F00F038B422DE9F04104460D464E
:104140000CD2136823F00F030B431360136803F0C2
:104150000F038B4202D00120BDE8F081236858078D
:104160000BD5814920698A6902F07002904204D916
:104170008A6922F0700202438A6119070BD57A49D5
:104180006069CA6902F07002904204D9CA6922F0DB
:1041900070020243CA61DA060BD57349A069CA6985
:1041A00002F4E062904204D9CA6922F4E062024358
:1041B000CA619F060BD56C49E0690A6A02F0700279
:1041C000904204D90A6A22F0700202430A629E07F2
:1041D00003F0010240F1AB80634EE068B16901F089
:1041E0000F01884204D9B16921F00F010143B16187
:1041F000002A30D05C4AA168936923F470630B43B2
:10420000936161681368022900F0A180032900F01E
:104210009880012900F0A1805F079CD5524E41F2A1
:104220008838336923F007030B433361FDF7CCFF74
:10423000074605E0FDF7C8FFC01B404500F28B8034
:104240003369626803F03803B3EBC20FF2D123681D
:104250009E0706D5E06844498A6902F00F02904241
:1042600069D340490A6802F00F02AA420AD90A68D3
:1042700022F00F022A430A600A6802F00F02AA42E3
:104280007FF469AF58070BD5374920698A6902F076
:104290007002904204D28A6922F0700202438A615D
:1042A00019070BD530496069CA6902F07002904263
:1042B00004D2CA6922F070020243CA61DA060BD541
:1042C0002949A069CA6902F4E062904204D2CA692D
:1042D00022F4E0620243CA619B060BD5224AE169DF
:1042E000136A03F07003994204D2136A23F0700337
:1042F0000B431362FFF766FE1B4A03461B48916996
:104300009269C1F303211A4D02F00F02194C415C6E
:10431000825C01F01F01184802F01F02CB400068C8
:104320002B60D3402360BDE8F041FDF7EBBE002ACF
:104330007FF460AF95E78A6922F00F0202438A6139
:104340008FE79A013FF56AAF05E7012070479803B0
:104350003FF564AFFFE60320FEE6DB053FF55EAF09
:10436000F9E600BF002000520044025870EB00083C
:10437000080000240400002410000024184A38B566
:10438000136903F03803102B24D0182B09D01BBB62
:1043900013689B0622D51268124BC2F3C102D340A8
:1043A00002E0FFF79BFA03460D490F488A698969C5
:1043B000C2F303220D4C01F00F010D4D825C405CF5
:1043C00002F01F0200F01F00D34023FA00F02B6020
:1043D000206038BD074BE7E7074BE5E7014BE3E714
:1043E000004402580090D00370EB00080400002441
:1043F000080000240024F40000093D00F8B5364C04
:1044000006460F46236823F080632360FDF7DCFE39
:10441000054604E0FDF7D8FE401B022856D8236865
:104420001A01F7D4A36A326823F47C3343EA0233D7
:10443000A362D6E90232013B013A5B0212049BB24D
:1044400002F4FE0213437268013AC2F308021343F6
:104450003269013A120602F0FE421343A363E36A93
:10446000726923F0C0031343E362E36AB26923F085
:1044700020031343E362E36A23F01003E362E36B78
:10448000F2696FF3CF0343EAC203E363E36A43F0E5
:104490001003E362E36ADFB1012F0CBF43F4801322
:1044A00043F40013E3620C4C236843F08063236001
:1044B000FDF78AFE054604E0FDF786FE401B022854
:1044C00004D823681B01F7D50020F8BD0320F8BDF0
:1044D00043F40023E362E6E700440258F8B5364CA3
:1044E00006460F46236823F080532360FDF76CFED9
:1044F000054604E0FDF768FE401B022856D82368F5
:104500009A00F7D4A36A326823F07C7343EA02531B
:10451000A362D6E90232013B013A5B0212049BB26C
:1045200002F4FE0213437268013AC2F30802134315
:104530003269013A120602F0FE4213432364E36A31
:10454000726923F440631343E362E36AB26923F4BC
:1045500000731343E362E36A23F48073E362636CE2
:10456000F2696FF3CF0343EAC2036364E36A43F47F
:104570008073E362E36ADFB1012F0CBF43F40003F1
:1045800043F08073E3620C4C236843F08053236054
:10459000FDF71AFE054604E0FDF716FE401B022853
:1045A00004D823689B00F7D50020F8BD0320F8BD90
:1045B00043F48003E362E6E7004402582DE9F84340
:1045C000D0E900320446180103F0006625D5E16EFB
:1045D000B1F5001F00F06D8500F26C86002900F037
:1045E0008E85B1F5801F40F069869349896A01F094
:1045F0000301032900F06286022104F10800FFF79D
:10460000FDFE0646D4E900323EB9E16E8A4D002631
:10461000286D20F4401001432965D9050AD5A16D04
:10462000042906D8DFE811F0D50306055405DA039E
:10463000DA03012635469F0524D5E16D802900F077
:104640000E8500F22A86002900F06085402940F09E
:104650002D867949896A01F00301032900F0268635
:10466000002104F10800FFF7C9FE0546D4E9003235
:10467000002D40F00685704FE06D396D21F4E0713A
:1046800001433965580526D5216EB1F5806F00F0DC
:10469000FB8400F2E885002900F02A85B1F5007F4F
:1046A00040F0EB856449896A01F00301032900F0B9
:1046B000E485002104F10800FFF7A0FE0546D4E9D7
:1046C0000032002D40F0F2845B4F206E396D21F4F2
:1046D000606101433965990118D5E16C202900F02A
:1046E000958400F2EE8539B1102940F0ED855248ED
:1046F000C16A41F40031C162002D40F0C7834E4FC2
:10470000E06CF96C21F030010143F964DF0426D537
:10471000616EB1F5005F00F00B8500F2B2850029F3
:1047200000F0FB84B1F5805F40F0B3854249896AAF
:1047300001F00301032900F0AC85002104F1080019
:10474000FFF75CFE0546D4E90032002D40F0ED8411
:10475000394F606E396D21F4E041014339659804A9
:1047600024D5A16EB1F5003F00F0058400F22D853F
:1047700091B1B1F5803F40F032852F49896A01F04F
:104780000301032900F02B85012104F10800FFF744
:1047900035FE0546D4E90032002D40F09B83264FBC
:1047A000A06E396D21F4E02101433965590426D505
:1047B000D4F8B010B1F1005F00F0EF8300F29485FF
:1047C00091B1B1F1805F40F030851B49896A01F0F9
:1047D0000301032900F02985012104F10800FFF7F6
:1047E0000DFE0546D4E90032002D40F06583124FDE
:1047F000D4F8B000B96D21F0E0410143B9651F0460
:104800000DD5A16FB1F1805F00F06282B1F1005F60
:1048100000F07885002900F0608201263546D80135
:1048200015D5A16C032900F29B85DFE811F00C007F
:1048300007006D030C0000BF004402583748C16AEE
:1048400041F40031C162002D00F018832E46590258
:1048500000F17D82DF0730D5D4F8841028292AD8CA
:10486000DFE811F058022900290029002900290059
:1048700029002900490229002900290029002900CE
:10488000290029009D042900290029002900290068
:10489000290029005802290029002900290029009F
:1048A000290029005802290029002900290029008F
:1048B0002900290058020126354698071FD5D4F84B
:1048C0008010052900F23585DFE811F0150006009B
:1048D00056041500150015001049896A01F00301FE
:1048E000032900F02685012104F10800FFF786FD69
:1048F0000546D4E90032002D00F0CC822E4659073F
:1049000021D5D4F89C10052900F20F85DFE811F0BD
:104910001700080021041700170017000044025870
:10492000AE49896A01F00301032900F0FE840121E8
:1049300004F10800FFF762FD0546D4E90032002DBE
:1049400000F0B1822E469F0626D5D4F89810B1F11A
:10495000005F00F0488300F2468491B1B1F1805FBE
:1049600040F04B849D49896A01F00301032900F05E
:104970004484002104F10800FFF740FD0546D4E916
:104980000032002D40F0A482944FD4F89800796D45
:1049900021F0E04101437965580626D5D4F8A410EA
:1049A000B1F5006F00F0C38200F2438491B1B1F51C
:1049B000806F40F048848949896A01F00301032926
:1049C00000F04184002104F10800FFF717FD0546BF
:1049D000D4E90032002D40F07F82804FD4F8A4004B
:1049E000B96D21F4E0510143B965190626D5D4F813
:1049F000A810B1F5804F00F0AC8200F2058491B1AF
:104A0000B1F5005F40F00A847449896A01F003013E
:104A1000032900F00384002104F10800FFF7EEFCF5
:104A20000546D4E90032002D40F050826B4FD4F897
:104A3000A800B96D21F460410143B9651F070BD58A
:104A4000D4F88C00B0F5805F00F0E981634F796D98
:104A500021F4405101437965D8060BD5D4F8A00064
:104A6000B0F5807F00F0C6815C4FB96D21F44071D4
:104A70000143B965190324D5D4F8AC10B1F5803FD2
:104A800000F03082B1F5003F10D0002940F03081B5
:104A90005248806A00F00300032800F0298104F1E5
:104AA0000800FFF7ABFC0546D4E90032002D40F0CA
:104AB00009824A4FD4F8AC00B96D21F4403101436A
:104AC000B9655F030FD5D4F89010B1F5001F00F061
:104AD0007782B1F5401F00F02E81B1F5801F00F004
:104AE000258101263546D80320D5216D002900F007
:104AF000B981B1F5803F40F0E8803849896A01F01A
:104B00000301032900F0E180022104F10800FFF70E
:104B100075FC0546D4E90032002D40F0AB812F4FE3
:104B2000206DF96C21F480310143F96499000ED5B0
:104B30002A49896A01F00301032907D0022104F1FF
:104B40002800FFF7CBFCD4E9003200B101269F0317
:104B500000F1AB803546D80206D52048E66F016DDE
:104B600021F0004131430165990206D51B48266FAB
:104B7000016D21F08071314301651F0506D517488D
:104B8000666F816D21F00061314381655E0009D55A
:104B90001249086920F4004008610869D4F8B86037
:104BA00030430861002B06DA0C48666DC16C21F0B9
:104BB00040513143C164180207D50849D4F8940024
:104BC0004B6D23F4400303434B65D10712D5034BD0
:104BD0009B6A03F00303032B02E000BF004402586A
:104BE00000F03583002104F10800FFF707FC62683C
:104BF00000B1054693070ED5B04B9B6A03F0030343
:104C0000032B00F02683012104F10800FFF7F6FBD7
:104C1000626800B1054657070ED5A84B9B6A03F0A2
:104C20000303032B00F01783022104F10800FFF7B0
:104C3000E5FB626800B1054616070ED59F4B9B6ADF
:104C400003F00303032B00F00883002104F1280084
:104C5000FFF744FC626800B10546D0060FD5974BBC
:104C60009B6A03F00303032B00F0F982012104F196
:104C70002800FFF733FC002840F030836268930679
:104C80000ED58E4B9B6A03F00303032B00F09A8230
:104C9000022104F12800FFF721FC002840F0928255
:104CA000281E18BF0120BDE8F883D4F88810B1F59C
:104CB000807F00F0C88040F2118121F48070B0F54F
:104CC000007F00F0C580012545E7012635462DE728
:104CD0007A48C16A41F40031C162002D40F0D880A9
:104CE000764FA06F396D21F040510143396596E54B
:104CF00001263546E5E67149896A01F00301032979
:104D00003FF4D9AD012104F10800FFF777FB054618
:104D1000D4E90032002D40F0D780684FD4F88400E9
:104D2000796D21F0380101437965C6E56348C16AB0
:104D300041F40031C162002D40F09E805F4FD4F8F5
:104D40009000796D21F4401101437965CBE65C4F09
:104D50003B6843F480733B60FDF736FA804606E01B
:104D6000FDF732FAA0EB0800642800F2B1823B683C
:104D7000DA05F5D5002D40F0AC82504AD4F8B430B5
:104D8000116F594011F4407F0BD0116F106F21F457
:104D9000407140F480301067106F20F4803010674D
:104DA0001167B3F5807F00F0DF8203F44072B2F543
:104DB000407F00F0ED8241490A6922F47C520A6189
:104DC0003E48C3F30B01076F3943D4E90032016752
:104DD00040E53A48C16A41F40031C1623546002DD0
:104DE00040F03A81354FA06D396D21F00701014344
:104DF000396520E43149896A01F00301032900F093
:104E00009C82022104F12800FFF768FB002800F0D3
:104E10009A82D4F8A0000126D4E9003224E627497A
:104E2000896A01F00301032900F08A82022104F15A
:104E30002800FFF753FB002840F08B82D4F88C0049
:104E4000D4E9003202E61D4FF86A40F40030F862FF
:104E5000002D7FF480AE194D686D20F44070014341
:104E6000696577E61548C16A41F40031C162002DD9
:104E70003FF455AE2E4659E62E4634E60F4FA06C51
:104E8000F96C21F003010143F964E0E42E463DE4AE
:104E90002E46C4E4094FD4F88000796D21F0070153
:104EA000014379652BE5054FD4F89C00B96D21F0DD
:104EB00007010143B96546E52E46A0E400440258C7
:104EC000004802582E46FCE52E46F6E42E46B5E58F
:104ED0002E4661E52E4669E42E4686E500297FF4DC
:104EE000F2AEB5E7C749896A01F0030103293FF42F
:104EF000FFAE022104F12800FFF7F0FA0546D4E9DD
:104F00000032002DDED1D4E5BE49896A01F00301EB
:104F1000032900F02582022104F10800FFF76EFA50
:104F20000546D4E90032002D7FF490ACA6E7B549E0
:104F3000896A01F00301032900F08581022104F14F
:104F40002800FFF7CBFA0546D4E90032002DC3D183
:104F500043E5AC49896A01F00301032900F05E8151
:104F6000022104F12800FFF7B9FA0546D4E900321E
:104F7000002DABD15AE5A349896A01F00301032949
:104F800000F02D81012104F12800FFF7A7FA054662
:104F9000D4E90032002D9DD101E49A49896A01F0DB
:104FA0000301032900F04181012104F12800FFF7EA
:104FB00095FA0546D4E90032002D7FF47DAF16E462
:104FC0009049896A01F0030103293FF48AAD012168
:104FD00004F12800FFF782FA0546D4E90032002DDB
:104FE0007FF44AAFAAE68749896A01F003010329E1
:104FF00000F00381022104F12800FFF76FFA054653
:10500000D4E90032002D7FF463AFBDE47D49896AA5
:1050100001F00301032900F05781022104F1080087
:10502000FFF7ECF90546D4E90032002D7FF42EAFEE
:10503000FFF765BB7349896A01F0030103293FF457
:10504000F8AA002104F10800FFF7D8F90546D4E9D1
:105050000032002D3FF4C6AE2E46FFF7ECBA694988
:10506000896A01F00301032900F02081002104F185
:105070002800FFF733FA0546D4E90032002D3FF44B
:10508000FAAA2E46FFF7FEBA5E49896A01F00301CB
:10509000032900F0F280002104F12800FFF71EFA36
:1050A0000546D4E90032002D3FF40EAB2E46FFF743
:1050B00012BB5449896A01F00301032900F0FE8004
:1050C000022104F12800FFF709FA0646FFF79ABA11
:1050D0004C49896A01F0030103293FF4AAAA00217F
:1050E00004F12800FFF7FAF90546D4E9003276E624
:1050F0004448C16A41F40031C162FFF7E2BA414D50
:10510000E86A40F40030E862FFF780BA3D48C16ABF
:1051100041F40031C162FFF7ABBA3A48C16A41F4C9
:105120000031C162002D3FF413AB2E46FFF717BBD1
:105130003449896A01F00301032900F0AA800021A3
:1051400004F12800FFF7CAF90546D4E90032FFF759
:10515000FCBA2C49896A01F00301032900F0E580BB
:10516000012104F12800FFF7B9F90546D4E900321E
:10517000002D7FF4E7AB96E62249896A01F003012E
:10518000032900F0D680012104F12800FFF7A6F9D9
:105190000546D4E90032002D7FF4B0AB7AE6194918
:1051A000896A01F0030103293FF485AB012104F171
:1051B0002800FFF793F90546D4E90032002D7FF46B
:1051C00083AEAAE50120BDE8F88321F48030B0F574
:1051D000802F3FF4E1AAB1F5403F3FF4DDAA01265C
:1051E0003546FFF7E3BA21F08050B0F1804F3FF42D
:1051F000C8ABB1F1405F3FF4C4AB01263546FFF7C1
:10520000CBBB00BF0044025821F40050B0F5004F62
:105210003FF409ACB1F5C04F3FF405AC012635466B
:105220000CE4B1F1C04F3FF4DFAA01263546FFF789
:10523000E6BA21F48060B0F5805F3FF4CBABB1F506
:10524000406F3FF4C7AB01263546FFF7CEBB0125C3
:10525000D0E40125DFE40125EEE40125FDE491061B
:10526000B0D501250DE521F40070B0F5006F3FF4D5
:1052700028AAB1F5C06F3FF424AA01263546FFF7EE
:105280002ABAB1F5405F3FF460AAB1F5804F3FF410
:105290005CAA01263546FFF762BA21F04000B0F55E
:1052A000807F3FF4E5A9C0293FF4E2A901263546F5
:1052B000FFF7E8B9B1F5401F3FF4A8A90126FFF7B1
:1052C000ACB930293FF418AA01263546FFF71EBABB
:1052D00003252E46D4E90032FFF7BCBA63689A066C
:1052E0007FF570AF0546CCE4B1F1A04F3FF47CAA46
:1052F00097D8B1F1405F3FF477AAB1F1804F94D1D4
:10530000FFF772BA2A49896A01F0030103293FF4C1
:1053100084AA012104F10800FFF770F80546D4E9DA
:105320000032002D7FF4B4ADDAE401263546FFF7F4
:105330000ABB01263546FFF7E2BA0126FFF794BB08
:105340000126FFF783BBD4F8A000D4E90032FFF7B1
:105350008BBBD4F88C000126D4E90032FFF776BB72
:1053600001263546FFF773BAFCF72EFFDFF84080C1
:10537000074641F2883904E0FCF726FFC01B484588
:1053800010D8D8F870309B07F6D5D4F8B4300CE5B7
:105390000748084A016902EA131221F47C510A43C2
:1053A00002610DE50326D4E900323546FFF752BA13
:1053B00000440258CFFFFF00036A1B4A23F0010399
:1053C00030B40362036A4468856923F002032A400B
:1053D0000D682A438D682B43144DA8420FD005F564
:1053E0008065A8420BD005F57055A84207D005F599
:1053F0008065A84203D005F58065A8420DD1CD682F
:1054000023F0080324F440742B43D1E905C523F0AD
:1054100004034CEA050C4CEA0404496844608261C8
:105420004163036230BC70478CFFFEFF0000014007
:10543000036A1C4A23F4807370B40362036A4468ED
:10544000C56923F400732A400D682A438D6843EA36
:105450000523154DA8420FD005F58065A8420BD055
:10546000124E05F58045A84218BFB0420BD005F595
:105470008065A8420FD106E023F40063CD6843EABB
:10548000052323F4806324F44054D1E9056546EAFA
:10549000050C44EA0C1449684460C261C1630362AC
:1054A00070BC70478CFFFEFF0000014000400140CF
:1054B000002800F09180F8B590F83D30044603F0E4
:1054C000FF02002B00F083802268022343494448F6
:1054D000B2F1804FA2EB010184F83D30A2EB000E47
:1054E0001368B1FA81F1A769BEFA8EFEE6684FEA49
:1054F000511165684FEA5E1E20D0F9B9DFF8E4C0AB
:1055000062454BD00CF5806C624547D00CF5806C41
:10551000624513D0BEF1000F10D1334833498A429F
:1055200018BF82423ED001F580618A423AD023F012
:1055300080033B431360D662956213E0A06823F0BA
:1055400070030343206923F44073034323F0800373
:105550003B431360D662956211B9BEF1000F2BD0A8
:105560006369136301230020536184F8483084F891
:105570003E3084F83F3084F8403084F8413084F87D
:10558000423084F8433084F8443084F8453084F85D
:10559000463084F8473084F83D30F8BD23F070037E
:1055A000A1680B43216923F440730B4323F080036C
:1055B0003B431360D66295620D490B4B9A4218BF6C
:1055C0008A42CDD003F580639A42C9D0CAE780F8F9
:1055D0003C20FCF7BDFB77E701207047000001404D
:1055E000000401400004004000400140004401402C
:1055F0000048014090F83D30012B39D102681D4B25
:105600001D49B2F1804F18BF9A4230B40CBF01233C
:1056100000231A4D0224AA4208BF43F0010380F878
:105620003D40174C8A4208BF43F00103154801F57D
:105630008051A24208BF43F00103824208BF43F0F9
:1056400001038A4208BF43F0010313B90E4B9A428B
:1056500007D191680D4B0B40062B06D0B3F5803F68
:1056600003D0136843F001031360002030BC70477F
:105670000120704700000140000800400004004085
:10568000000C004000040140004001400700010000
:10569000704700BF002800F09180F8B590F83D30C9
:1056A000044603F0FF02002B00F0838022680223EF
:1056B00043494448B2F1804FA2EB010184F83D30E8
:1056C000A2EB000E1368B1FA81F1A769BEFA8EFE53
:1056D000E6684FEA511165684FEA5E1E20D0F9B9BD
:1056E000DFF8E4C062454BD00CF5806C624547D0D2
:1056F0000CF5806C624513D0BEF1000F10D1334819
:1057000033498A4218BF82423ED001F580618A4205
:105710003AD023F080033B431360D662956213E0D6
:10572000A06823F070030343206923F4407303430C
:1057300023F080033B431360D662956211B9BEF13A
:10574000000F2BD06369136301230020536184F899
:10575000483084F83E3084F83F3084F8403084F894
:10576000413084F8423084F8433084F8443084F87F
:10577000453084F8463084F8473084F83D30F8BD31
:1057800023F07003A1680B43216923F440730B439A
:1057900023F080033B431360D66295620D490B4BA7
:1057A0009A4218BF8A42CDD003F580639A42C9D08D
:1057B000CAE780F83C20FFF76BFF77E701207047CE
:1057C000000001400004014000040040004001408E
:1057D000004401400048014010290AD8DFE801F0E8
:1057E00019090909550909095D090909650909091D
:1057F0006D0090F84330012B70D10B1F0C2B64D837
:10580000DFE803F0476363634F6363635763636376
:105810005F0090F83E30012B60D1022380F83E30CB
:10582000036801F01F010122186A8A4020EA020081
:1058300010B41862334C196AA34242EA01021A6298
:1058400047D0314A934244D002F57052934240D03F
:1058500002F58062934243D002F5806293423FD0CA
:10586000B3F1804F02D0294A93423ED19968284A29
:105870000A40062A06D0B2F5803F03D01A6842F0EB
:1058800001021A60002010BC704790F83F30012BD5
:1058900024D1022380F83F30C2E790F84030012B3A
:1058A0001CD1022380F84030BAE790F84130012B38
:1058B00014D1022380F84130B2E790F84230012B36
:1058C0000CD1022380F84230AAE7022380F843304B
:1058D000A6E75A6C42F400425A64C7E701207047B9
:1058E0005A6C42F400425A64C8E70A4902F58062E1
:1058F000934218BF8B42B9D002F580529342BDD17A
:10590000B4E700BF00000140000401400004004073
:1059100007000100000C0040704700BF002800F0A5
:105920009180F8B590F83D30044603F0FF02002B5B
:1059300000F083802268022343494448B2F1804F3B
:10594000A2EB010184F83D30A2EB000E1368B1FA1E
:1059500081F1A769BEFA8EFEE6684FEA51116568CB
:105960004FEA5E1E20D0F9B9DFF8E4C062454BD0A3
:105970000CF5806C624547D00CF5806C624513D005
:10598000BEF1000F10D1334833498A4218BF82421A
:105990003ED001F580618A423AD023F080033B4338
:1059A0001360D662956213E0A06823F0700303438E
:1059B000206923F44073034323F080033B431360C7
:1059C000D662956211B9BEF1000F2BD063691363E3
:1059D00001230020536184F8483084F83E3084F875
:1059E0003F3084F8403084F8413084F8423084F805
:1059F000433084F8443084F8453084F8463084F8E5
:105A0000473084F83D30F8BD23F07003A1680B43A4
:105A1000216923F440730B4323F080033B4313605D
:105A2000D66295620D490B4B9A4218BF8A42CDD07F
:105A300003F580639A42C9D0CAE780F83C20FFF79B
:105A40006BFF77E701207047000001400004014030
:105A50000004004000400140004401400048014073
:105A600010290AD8DFE801F01909090955090909BF
:105A70005D090909650909096D0090F84330012B9A
:105A800070D10B1F0C2B64D8DFE803F0476363630E
:105A90004F636363576363635F0090F83E30012B8D
:105AA00060D1022380F83E30036801F01F0101221B
:105AB000186A8A4020EA020010B41862334C196A4E
:105AC000A34242EA01021A6247D0314A934244D0CB
:105AD00002F57052934240D002F58062934243D067
:105AE00002F5806293423FD0B3F1804F02D0294A41
